:020000040800F2
:10000000E82D0020C1020008F1880008D979000815
:10001000E9880008C10800084999000800000000AC
:10002000000000000000000000000000418D0008FA
:10003000511700080000000099890008A18D0008F0
:10004000DB020008DB020008DB020008DB0200081C
:10005000DB020008DB02000859170008DB02000879
:10006000DB02000879170008DB020008DB02000849
:10007000DB020008A9090008DB020008DB02000817
:10008000DB020008DB020008DB020008DB020008DC
:10009000DB020008DB020008DB020008DB020008CC
:1000A000DB020008DB020008DB020008DB020008BC
:1000B000DB020008DB020008DB020008DB020008AC
:1000C000DB020008DB020008DB020008DB0200089C
:1000D000DB020008DB020008DB020008DB0200088C
:1000E00069170008DB020008DB020008DB020008D9
:1000F0004990000831900008DB020008DB0200088C
:10010000DB020008DB020008DB020008DB0200085B
:10011000DB020008DB020008DB020008199000087F
:10012000290B0008DB020008DB020008DB020008E4
:10013000DB0200080000000000000000DB020008F5
:10014000DB020008DB020008DB020008DB0200081B
:10015000DB020008DB020008DB020008DB0200080B
:10016000DB020008DB020008DB020008DB020008FB
:10017000DB020008DB020008DB020008DB020008EB
:10018000DB020008DB020008DB020008DB020008DB
:10019000DB020008DB020008DB020008DB020008CB
:1001A00071850008DB020008DB020008DB020008A2
:1001B000DB020008DB020008DB020008DB020008AB
:1001C000DB020008DB020008000000000000000065
:1001D0000000000000000000DB020008000000003A
:1001E000000000000000000000000000000000000F
:1001F0000000000000000000DB020008DB02000835
:10020000DB020008DB02000800000000DB0200083F
:10021000DB020008E98F000801900008DB020008FB
:10022000DB020008DB020008DB020008000000001F
:10023000DB020008DB02000800000000DB0200080F
:10024000DB020008DB020008DB020008DB0200081A
:10025000DB020008DB020008DB020008DB0200080A
:10026000DB020008DB020008DB020008DB020008FA
:10027000DB020008DB020008DB02000800000000CF
:10028000DB020008DB02000800000000DB020008BF
:1002900000000000DB020008DB020008DB020008AF
:1002A000DB020008DB020008DB020008DFF80CD0EC
:1002B00000F05AFA00480047F9D70008E82D00205E
:1002C0000648804706480047FEE7FEE7FEE7FEE7F0
:1002D000FEE7FEE7FEE7FEE7FEE7FEE7A98E000881
:1002E000AD0200082DE9F05F0546002092469B46CE
:1002F00088460646814640241BE02846414647463C
:10030000224600F069F853465A46C01A914110D36C
:1003100011461846224600F050F82D1A67EB0108E6
:100320004F4622460120002100F047F817EB000954
:100330004E41201EA4F10104DFDC484631462A4626
:100340004346BDE8F09F40EA01039B0703D009E064
:1003500008C9121F08C0042AFAD203E011F8013BB1
:1003600000F8013B521EF9D27047D2B201E000F80A
:10037000012B491EFBD270470022F6E710B5134649
:100380000A4604461946FFF7F0FF204610BD30B577
:100390000B46014600202022012409E021FA02F543
:1003A0009D4205D303FA02F5491B04FA02F52844DD
:1003B000151EA2F10102F1DC30BD202A04DB203A37
:1003C00000FA02F1002070479140C2F1200320FAA8
:1003D00003F3194390407047202A04DB203A21FAA6
:1003E00002F00021704721FA02F3D040C2F120024E
:1003F00091400843194670472DE9FE4F804681EA37
:100400000300C00F0C46009021F0004123F000458E
:10041000B8EB0200A94105D24046214690461C4651
:100420000B46024623F00040104347D0270DC7F388
:100430000A00C3F30A510290401A019040286BDA77
:10044000C3F3130040F4801B0098924620B10023B0
:10045000D2EB030A63EB0B0B01985946C0F1400243
:100460005046FFF7AAFF06460D4650465946019AE8
:1004700000F08CF910EB08006141002487EA11526A
:1004800084EAE7731A4340D0009A62B3019A012AC2
:100490004FEA075215DC001B61EB02014FF00042EE
:1004A00002EA0752CDE90042001C41F580113246B4
:1004B0002B4600F08CF903B0BDE8F08F4046214692
:1004C000F9E7001B61EB0201001C41F580130018E5
:1004D0005B412018A2F5001747EB030140EAD570F5
:1004E000B6196D4111E06D084FEA360645EAC07550
:1004F0004FEA0752001B61EB0201001C41F580111D
:1005000049084FEA30000019514132462B4603B0EA
:10051000BDE8F04F00F04CB90098012240000023E4
:10052000D0EB020263EBE073009821464FEAE074DF
:10053000B8EB000061EB0401E9E783F000435BE7FF
:1005400081F0004158E72DE9FE4F81EA030404F0F1
:10055000004421F0004100944FF0000B23F00043D1
:1005600050EA01045ED052EA03045BD0C3F30A549C
:10057000C1F30A552C44A4F2F3340194A0FB0254B5
:10058000C1F3130141F48011C3F3130343F4801347
:1005900001FB024400FB034E840A970A44EA81549B
:1005A00047EA8357A4FB076802958D0A05FB078578
:1005B0004FEA932C04FB0C542705029D4FEA065882
:1005C00047EA1637B5EB08056EEB070C870E920E5F
:1005D00047EA811742EA8312A7FB0201B6EB0B013F
:1005E00064EB00042B0D43EA0C335E1844EB1C5003
:1005F000DA465146E7FB0201C5F313044FEA0B3319
:1006000043EA14534FEA0432019C43EA0603A4F17F
:100610000C040294009CCDE900B400F0D8F803B0BB
:10062000BDE8F08F00200146F9E72DE9F04D81EAA1
:10063000030404F0004B21F0004514464FF0000A7B
:1006400023F0004150EA050220D054EA01021DD0F7
:10065000C5F30A570246C5F31303C1F31300C1F3F0
:100660000A5640F4801543F48013A7EB0608101BCC
:10067000D64608F2FD3873EB050002D308F10108F5
:1006800001E092185B41B8F1000F03DA0020014647
:10069000BDE8F08D00204FF48011064684460EE040
:1006A000171B73EB050705D3121B63EB050306430A
:1006B0004CEA010C49084FEA300092185B4150EABD
:1006C0000107EDD152EA030012D082EA040083EA66
:1006D0000501084305D0101BAB4106D201220023BF
:1006E00006E000224FF0004302E06FF001025310D9
:1006F0001AEB06004CEB085110EB0A0041EB0B0122
:10070000BDE8F04D00F054B8C1F30A52C1F3130133
:1007100040F2FF3341F480119A4202DA0020014690
:10072000704740F233439A42A2F2334202DC524213
:10073000FFF752BEFFF741BE30B5041E71F1000451
:1007400004DB4FF00044404264EB0101141E73F1DE
:10075000000405DB1C464FF00043524263EB0403E8
:10076000994208BF904230BD064C074D06E0E06854
:1007700040F0010394E8070098471034AC42F6D3E8
:10078000FFF798FD3C3205086C320508202A06DB8D
:10079000CB17203A41FA02F043EAE07306E041FA4F
:1007A00002F3D040C2F1200291400843194670473D
:1007B00010B5141E73F1000408DA401C41F1000169
:1007C00092185B411A4301D120F0010010BD2DE9C0
:1007D000F04D92469B4611B1B1FA81F202E0B0FAB7
:1007E00080F220329046FFF7E8FD04460F4640EACB
:1007F0000A0041EA0B0153465A46084313D01146FA
:1008000053EA010019D0C8F140025046FFF7E4FD59
:1008100005460E46504659464246FFF7CEFD084370
:1008200005D0012004E020463946BDE8F08D0020C7
:10083000054346EAE0762C4337430A986305E40A09
:10084000A0EB08000022FD0A44EA47540A3002D512
:1008500000200146E9E7010510196941DDE9084575
:1008600000196941BDE8F04DA2E770B58C1810F889
:10087000015B15F0070301D110F8013B2A1106D1E5
:1008800010F8012B03E010F8016B01F8016B5B1EFF
:10089000F9D12B0705D40023521E0DD401F8013BDA
:1008A000FAE710F8013BCB1A921C03E013F8015B46
:1008B00001F8015B521EF9D5A142D8D3002070BDCA
:1008C000FFE7FEE70000000083B04EF61450CEF2C2
:1008D000000000688003002801D5FFE71AE0BFF39D
:1008E0004F8FBFF36F8F4EF65071CEF20001002094
:1008F0000860BFF34F8FBFF36F8F4EF61451CEF2E7
:100900000001086840F400300860BFF34F8FBFF368
:100910006F8FFFE74EF61450CEF200000068C00360
:10092000002801D5FFE73CE04EF68451CEF20001ED
:1009300000200860BFF34F8F4EF68050CEF20000CB
:10094000006802900298C0F34E300190FFE70298D1
:10095000C0F3C9000090FFE701990098800761F398
:100960004D104EF66071CEF2000108600098411EF5
:1009700000910028F0D1FFE70198411E0191002865
:10098000E5D1FFE7BFF34F8F4EF61451CEF20001D1
:10099000086840F480300860BFF34F8FBFF36F8F5B
:1009A000FFE703B07047000083B00020C4F20200EC
:1009B0000068800200283FD5FFE74EF68451CEF252
:1009C000000100200860BFF34F8F4EF68050CEF23A
:1009D0000000006802900298C0F34E300190FFE7DB
:1009E0000298C0F3C9000090FFE7019900988007C2
:1009F00061F34D104EF67471CEF20001086000985C
:100A0000411E00910028F0D1FFE70198411E01919D
:100A10000028E5D1FFE7BFF34F8FBFF36F8F41F69B
:100A20008841C2F20001012008700821C4F20201CD
:100A30004FF400100860FFE70020C4F202000068D5
:100A4000C002002807D5FFE70821C4F202014FF4D5
:100A500080100860FFE70020C4F202000068000375
:100A6000002807D5FFE70821C4F202014FF4002057
:100A70000860FFE70020C4F202000068400300287D
:100A800007D5FFE70821C4F202014FF48020086077
:100A9000FFE703B07047000085B0DDF818C0DDF84F
:100AA00014C004900391029201930220009041F23D
:100AB0000001C5F2002140F20020C0F203000860EE
:100AC000069841F23802C5F200221060039841F204
:100AD0003C02C5F200221060059841F24002C5F2C6
:100AE00000221060009841F23402C5F2002210602A
:100AF000029ABDF8040040EA024041F24402C5F205
:100B000000221060086840F001000860FFE741F231
:100B10000000C5F200200068C00708B1FFE7F6E753
:100B200005B070470000000080B584B040F200407E
:100B3000C4F2020000688006002846D5FFE740F2B4
:100B40000841C4F202012020086040F21040C4F2C3
:100B5000020000680003002835D4FFE74EF68451F8
:100B6000CEF2000100200860BFF34F8F4EF6805098
:100B7000CEF20000006803900398C0F34E3002905C
:100B8000FFE70398C0F3C9000190FFE702990198BD
:100B9000800761F34D104EF67471CEF200010860CB
:100BA0000198411E01910028F0D1FFE70298411EF3
:100BB00002910028E5D1FFE7BFF34F8FBFF36F8F9E
:100BC00007F0E2FE00E0FFE7FFE740F20040C4F27A
:100BD00002000068C00600281CD5FFE740F208416B
:100BE000C4F202011020086040F21040C4F202007A
:100BF0000068000300280BD4FFE7012000900AF0F2
:100C000003FC009841F6FC71C2F20001087000E09C
:100C1000FFE7FFE704B080BD83B00290029801684F
:100C200001201022C4F202029142009000F0A38041
:100C3000FFE70298016801202822C4F202029142D3
:100C4000009000F09880FFE70298016801204022A0
:100C5000C4F202029142009000F08D80FFE70298FA
:100C6000016801205822C4F202029142009000F073
:100C70008280FFE70298016801207022C4F202021C
:100C80009142009077D0FFE7029801680120882206
:100C9000C4F20202914200906DD0FFE70298016811
:100CA0000120A022C4F202029142009063D0FFE72B
:100CB000029801680120B822C4F202029142009019
:100CC00059D0FFE702980168012040F21042C4F2B7
:100CD0000202914200904ED0FFE702980168012085
:100CE00040F22842C4F202029142009043D0FFE752
:100CF00002980168012040F24042C4F2020291428F
:100D0000009038D0FFE702980168012040F2584275
:100D1000C4F20202914200902DD0FFE702980168D0
:100D2000012040F27042C4F202029142009022D0AF
:100D3000FFE702980168012040F28842C4F20202F3
:100D40009142009017D0FFE702980168012040F21D
:100D5000A042C4F20202914200900CD0FFE7029838
:100D600000684FF64831CBF6FD710844B0FA80F0C8
:100D700040090090FFE70098C00740B3FFE70298E2
:100D8000007810384AF6AB21CAF6AA21A0FB011060
:100D900000090190019800F0070140F20C70C0F6C4
:100DA0000100405C0299C8650198042807D3FFE759
:100DB00002990868042262F30900886506E0029936
:100DC000086840F2FF3290438865FFE705E002992A
:100DD000086820F0FF008865FFE70298806D03B087
:100DE000704700000000000084B003900398006882
:100DF000019003980168012045F20842C5F60202FD
:100E0000914200904ED0FFE703980168012045F21F
:100E10001C42C5F602029142009043D0FFE70398BE
:100E20000168012045F23042C5F60202914200906D
:100E300038D0FFE703980168012045F24442C5F627
:100E40000202914200902DD0FFE703980168012033
:100E500045F25842C5F602029142009022D0FFE7C7
:100E600003980168012045F26C42C5F602029142E6
:100E7000009017D0FFE703980168012045F28042F7
:100E8000C5F60202914200900CD0FFE7039800687B
:100E90004AF66C31CAF2FD710844B0FA80F040099C
:100EA0000090FFE70098C00710B3FFE703980078B1
:100EB00008384CF6CD41CCF6CC41A0FB011000091E
:100EC0000290029945F60000C5F6020000EB810091
:100ED00003990866039945F68000C5F60200486646
:100EE000029800F01F01012088400399886635E0D0
:100EF0000398007810384AF6AB21CAF6AA21A0FB65
:100F0000011000090290019840F2B841C4F20201B8
:100F100088420CD8FFE7019840F21041C4F2020168
:100F2000884204D3FFE7029808300290FFE7029955
:100F300040F60000C4F2020000EB8100039908664D
:100F4000039940F68000C4F202004866029800F05F
:100F50001F010120884003998866FFE704B07047AD
:100F600083B002900298007901900198002800F067
:100F70008A80FFE70198082800F28580FFE7029841
:100F80000168012045F20842C5F602029142009034
:100F90004ED0FFE702980168012045F21C42C5F6D9
:100FA00002029142009043D0FFE7029801680120BD
:100FB00045F23042C5F602029142009038D0FFE778
:100FC00002980168012045F24442C5F602029142AE
:100FD00000902DD0FFE702980168012045F25842A9
:100FE000C5F602029142009022D0FFE70298016804
:100FF000012045F26C42C5F602029142009017D0E2
:10100000FFE702980168012045F28042C5F602021E
:10101000914200900CD0FFE7029800684AF66C31CC
:10102000CAF2FD710844B0FA80F040090090FFE771
:101030000098C00780B1FFE7019945F6FC00C5F6AE
:10104000020000EB81000299C866029945F6401043
:10105000C5F6020008670FE0019940F6FC00C4F2F3
:10106000020000EB81000299C866029940F6401028
:10107000C4F202000867FFE70198411E0120884082
:1010800002994867FFE703B07047000000000000C6
:1010900085B0049000208DF80F000498806918BB7B
:1010A000FFE70498806A029003281BD80299DFE8C2
:1010B00001F0020D0218049890F82F00C00720B12B
:1010C000FFE701208DF80F00FFE70CE00498C06AED
:1010D000B0F1C07F04D1FFE701208DF80F00FFE7DA
:1010E00001E000E0FFE747E004988069B0F5005FA9
:1010F00026D1FFE70498806A019003281ED8019941
:10110000DFE801F00206021101208DF80F0016E061
:10111000049890F82F00C00720B1FFE701208DF858
:101120000F00FFE70BE00498C06AB0F1C07F04D164
:10113000FFE701208DF80F00FFE700E0FFE71AE06E
:101140000498806A0090032804D3FFE700980328DE
:1011500004D00EE001208DF80F000BE0049890F809
:101160002F00C00720B1FFE701208DF80F00FFE737
:1011700000E0FFE7FFE7FFE79DF80F0005B07047CD
:1011800089B008900791069205930898806D0490A5
:101190000898806D03900898016801201022C4F21D
:1011A00002029142029000F00381FFE70898016873
:1011B00001202822C4F202029142029000F0F8803D
:1011C000FFE70898016801204022C4F20202914220
:1011D000029000F0ED80FFE7089801680120582296
:1011E000C4F202029142029000F0E280FFE7089808
:1011F000016801207022C4F202029142029000F0C4
:10120000D780FFE70898016801208822C4F2020213
:101210009142029000F0CC80FFE70898016801201D
:10122000A022C4F202029142029000F0C180FFE7C6
:10123000089801680120B822C4F20202914202908B
:1012400000F0B680FFE708980168012040F21042E4
:10125000C4F202029142029000F0AA80FFE70898CF
:101260000168012040F22842C4F202029142029039
:1012700000F09E80FFE708980168012040F240429C
:10128000C4F202029142029000F09280FFE70898B7
:101290000168012040F25842C4F2020291420290D9
:1012A00000F08680FFE708980168012040F2704254
:1012B000C4F20202914202907AD0FFE708980168D6
:1012C000012040F28842C4F20202914202906FD0A3
:1012D000FFE708980168012040F2A042C4F2020230
:1012E0009142029064D0FFE708980168012040F223
:1012F000B842C4F202029142029059D0FFE7089826
:101300000168012045F20842C5F6020291420290AE
:101310004ED0FFE708980168012045F21C42C5F64F
:1013200002029142029043D0FFE708980168012031
:1013300045F23042C5F602029142029038D0FFE7F2
:1013400008980168012045F24442C5F60202914224
:1013500002902DD0FFE708980168012045F258421D
:10136000C5F602029142029022D0FFE70898016878
:10137000012045F26C42C5F602029142029017D05C
:10138000FFE708980168012045F28042C5F6020295
:10139000914202900CD0FFE7089800684AF66C3141
:1013A000CAF2FD710844B0FA80F040090290FFE7EC
:1013B0000298C00770B1FFE70898416E806E4860E0
:1013C0000898C06E28B1FFE70898016F406F486029
:1013D000FFE7FFE70898016801201022C4F202022B
:1013E0009142019000F0A380FFE708980168012076
:1013F0002822C4F202029142019000F09880FFE797
:101400000898016801204022C4F202029142019032
:1014100000F08D80FFE70898016801205822C4F28F
:1014200002029142019000F08280FFE70898016873
:1014300001207022C4F202029142019077D0FFE7AE
:101440000898016801208822C4F2020291420190AA
:101450006DD0FFE7089801680120A022C4F20202C3
:101460009142019063D0FFE7089801680120B822FB
:10147000C4F202029142019059D0FFE70898016836
:10148000012040F21042C4F20202914201904ED07B
:10149000FFE708980168012040F22842C4F20202E6
:1014A0009142019043D0FFE708980168012040F283
:1014B0004042C4F202029142019038D0FFE70898FE
:1014C0000168012040F25842C4F2020291420190A8
:1014D0002DD0FFE708980168012040F27042C4F265
:1014E00002029142019022D0FFE708980168012092
:1014F00040F28842C4F202029142019017D0FFE705
:1015000008980168012040F2A042C4F20202914210
:1015100001900CD0FFE7089800684FF64831CBF6F1
:10152000FD710844B0FA80F040090190FFE701988E
:10153000C00750B3FFE70898C06D00F01F013F20BF
:1015400088400499886008980168086820F4802021
:1015500008600598089909684860089880684028DC
:1015600009D1FFE7069808990968886007980899E3
:101570000968C86008E007980899096888600698B3
:1015800008990968C860FFE7DEE008980168012053
:1015900042F60842C4F602029142009000F0AA808E
:1015A000FFE708980168012042F61C42C4F60202D7
:1015B0009142009000F09E80FFE7089801680120AA
:1015C00042F63042C4F602029142009000F092804E
:1015D000FFE708980168012042F64442C4F602027F
:1015E0009142009000F08680FFE708980168012092
:1015F00042F65842C4F60202914200907AD0FFE7C8
:1016000008980168012042F66C42C4F60202914239
:1016100000906FD0FFE708980168012042F68042F1
:10162000C4F602029142009064D0FFE70898016876
:10163000012042F69442C4F602029142009059D031
:10164000FFE708980168012045F20842C5F602024A
:10165000914200904ED0FFE708980168012045F2C2
:101660001C42C5F602029142009043D0FFE7089861
:101670000168012045F23042C5F602029142009015
:1016800038D0FFE708980168012045F24442C5F6CA
:101690000202914200902DD0FFE7089801680120D6
:1016A00045F25842C5F602029142009022D0FFE76F
:1016B00008980168012045F26C42C5F60202914289
:1016C000009017D0FFE708980168012045F280429A
:1016D000C5F60202914200900CD0FFE7089800681E
:1016E0004AF66C31CAF2FD710844B0FA80F0400944
:1016F0000090FFE70098C00720B3FFE70898C06D8F
:1017000000F01F010120884003994860059808995E
:101710000968486008988068402809D1FFE7069862
:10172000089909688860079808990968C86008E0FE
:101730000798089909688860069808990968C86038
:10174000FFE700E0FFE7FFE709B070470000000097
:10175000704700000000000080B5012001F0B8FED5
:1017600080BD00000000000080B54FF4806001F0F3
:10177000AFFE80BD0000000080B5082001F0A8FE8B
:1017800080BD00000000000080B582B00190009193
:101790000199009A43F2C000C0F605000EF01CFB50
:1017A000009810B9FFE702B080BDFFE7FEE7000038
:1017B00082B001904FF68070C2F20100007818B933
:1017C000FFE7002000900EE00199C1F3C6224FF61A
:1017D0000070C2F20100805CC1F30221C84000F039
:1017E00001000090FFE7009802B070470000000081
:1017F00080B584B0FFE74FF68070C2F201008069C7
:10180000019000F0E1FA0390039808F08DF802903F
:10181000FFE7029801998842EDD1FFE7039802990A
:10182000884203D2FFE706F0D3FBFFE7039804B03A
:1018300080BD00000000000080B588B005900491D4
:1018400003920598FFF7B4FF18B9FFE7012006904F
:101850001CE0FFF7CDFF0290BDF814000590EFF3F8
:1018600005800790079A059840F40021002A18BFC8
:1018700008460590059840F040700299049A039B31
:1018800000F0CEF8019001980690FFE7069808B0A6
:1018900080BD00000000000080B58CB00990089168
:1018A0000792089828B1FFE70798B0F5807F03D921
:1018B000FFE700200A90AFE00998FFF779FF18B919
:1018C000FFE701200A90A7E0FFF792FF0590BDF81F
:1018D00024000990EFF305800B900B9A099840F4CF
:1018E0000021002A18BF084609900898069007981A
:1018F00050B9FFE70998059900231A4600F090F8BF
:10190000019001980A9087E0079808281BD8FFE704
:101910000020029003900699079A02A8FEF713FD93
:10192000079800F00701099840EA014009900998DA
:1019300040F040700599029A039B00F071F8019005
:1019400001980A9068E000F063FA01464FF4E02045
:1019500000EA0140049006990868496803910290E2
:101960000698083006900798083807900499099857
:1019700008430990099840F080700599029A039BEA
:1019800000F04EF80190019818B9FFE700200A9086
:1019900042E004984FF6017108430990FFE7079869
:1019A00009281CD3FFE7069908684968039102904B
:1019B0000698083006900798083807900998059906
:1019C000029A039B00F02CF80190099801300990CD
:1019D000019818B9FFE700200A901DE0DFE700201A
:1019E000029003900699079A02A8FEF7ACFC0998AA
:1019F00020F47F4009900799099840EA0120099056
:101A0000099840F000700599029A039B00F008F8CD
:101A1000019001980A90FFE70A980CB080BD000081
:101A200080B58CB00A900991089207930720059021
:101A3000FFE7059800286AD0FFE700F0F5F9049069
:101A400004996FF31F314FF60070C2F2000000EBF3
:101A50000110069004994FF4700000EA01200190F3
:101A60000A9801990843099A4FF0805101EAD2017E
:101A70000843089A4FF0005101EA92010843079A7F
:101A80004FF0804101EA5201084340F0406003906A
:101A900006980C30039906F0ABFE03909DF80F00FA
:101AA000400700282ED5FFE7039880F08060039060
:101AB000039880F000400390039800F000400290EB
:101AC000099820F000400299084306990860089898
:101AD00020F000400299084306994860079820F0DA
:101AE0000040029908430699886006980C300399D3
:101AF00007F0FEFE28B1FFE706F082FA01200B9006
:101B00000AE004E0FFE705980138059091E706F048
:101B10006BFA00200B90FFE70B980CB080BD000023
:101B200087B00590049103920498FE2804D8FFE73B
:101B30000398FF2803D3FFE70020069036E000203B
:101B400002900190FFE7019803282CD8FFE7059841
:101B50000199C840C007F0B1FFE704980090FFE783
:101B600000980399884215D8FFE7009901F0070211
:101B7000012000FA02F3029800EBD1024FF6007147
:101B8000C2F20101885C18438854FFE700980130D5
:101B90000090E5E7FFE7029820300290FFE7019808
:101BA00001300190CFE701200690FFE7069807B0CB
:101BB000704700000000000080B58CB00B900A91C7
:101BC0004FF68071C2F201010391002008704FF6B8
:101BD0000070C2F201008021FEF7CEFB40F21470CB
:101BE000C0F6010018210BF047FB01460398ADF841
:101BF0002210006A42F26B71CEF2A51188420FD01A
:101C0000FFE74FF68071C2F2010142F26B70CEF233
:101C1000A5100862BDF8220048800120C8611CE0C0
:101C20004FF68070C2F201004088BDF82210884251
:101C30000AD0FFE7BDF822004FF68071C2F2010121
:101C400048800120C86107E04FF68071C2F20101AF
:101C5000C8690130C861FFE7FFE74FF68070C2F244
:101C60000100C069012812D1FFE74FF68071C2F26E
:101C700001010020487048608860C8604FF600701D
:101C8000C2F200004FF48031FEF776FB22E0002024
:101C90000490FFE704990020B0EB113F19D1FFE752
:101CA00004994FF60070C2F2000000EB0110099099
:101CB0000998C07B4007002806D5FFE70999C86846
:101CC00020F04060C860FFE7FFE70498013004900F
:101CD000E0E7FFE74FF68070C2F20100C06901281B
:101CE00017D1FFE700F080F80690069820B1FFE7D3
:101CF00000F072F8079002E000200790FFE70798D5
:101D00004FF68071C2F201014861002088610861CC
:101D100003E000F069F80690FFE7069840B3FFE79C
:101D20000B9800210291FE220192FFF7F9FE0F208D
:101D3000EF221146FFF7F4FE019A04201146FFF747
:101D4000EFFEFFF755FD029B059005994FF6807059
:101D5000C2F20100C2694FF60070C0F20030FFF716
:101D60005FFE0A9818B1FFE700F006F8FFE7FFE70B
:101D700006980CB080BD000080B584B04FF680702E
:101D8000C2F20100007818B1FFE70120039015E0CE
:101D90004FF68071C2F20101012001900870FFF737
:101DA00027FD029002994FF60170C0F20030002327
:101DB0001A46FFF735FE01980390FFE7039804B039
:101DC00080BD00000000000041F20400CEF20000DF
:101DD000006870470000000040F20400C2F20000FA
:101DE00000687047000000004EF6FC51CEF2000182
:101DF000086840F08070086041F20001CEF20001F6
:101E0000086840F0010008600120704700000000F1
:101E100080B54FF68070C2F20100013007F044FF38
:101E200080BD00000000000080B54FF68070C2F257
:101E30000100043007F028FF80BD00000000000012
:101E400080B588B006900591049205980069012834
:101E500001D1FFE7FFE705980068042801D1FFE7FB
:101E6000FFE7FFE706984079012804D1FFE7022049
:101E70008DF81F001FE1069901204871FFE7FFE779
:101E800006990220087105980068042872D1FFE7BE
:101E900001F04EFD0190049838BBFFE7FFE706987C
:101EA0000068406B48F20001C2F20001084213D002
:101EB000FFE701F03DFD0199401A02280BD3FFE72F
:101EC0000699086940F00800086106990320087126
:101ED0008DF81F00EFE0E2E7012001F08DFA059890
:101EE000806906990968086422E0FFE7069800689F
:101EF000406BC00F98B1FFE701F01AFD0199401A3D
:101F000002280BD3FFE70699086940F00800086132
:101F10000699032008718DF81F00CCE0E6E7012048
:101F200001F06AFA05988069069909684864FFE734
:101F300006980068806C049901F0100240F2FF31AD
:101F4000914088430599C9699140084306990968F9
:101F5000886406980068C06C049901F01002FF21A3
:101F6000914088430599096A914008430699096898
:101F7000C864FFE70598006901281ED1FFE70698AD
:101F80000068806B0390049800F010011F2000FA95
:101F900001F10398884303900598406902900298E4
:101FA000049901F0100100FA01F10398084303902D
:101FB0000398069909688863FFE706980068C06B74
:101FC0000390049800F01001072000FA01F1039833
:101FD000884303900598C068012803D1FFE70020DB
:101FE000009013E00598C068022803D1FFE70120A4
:101FF00000900AE00598806818B9FFE7012000907A
:1020000002E000200090FFE7FFE7FFE7059908687E
:10201000896808430099084302900298049901F0E6
:10202000100100FA01F10398084303900398069900
:102030000968C863049800F010014FF4804000FA6A
:1020400001F20698016808689043086006980068E5
:1020500000680390049800F0100140F6FE7000FA4A
:1020600001F1039888430390059840680290029814
:10207000049901F0100100FA01F10398084303905C
:102080000398069909680860049800F01001C020C0
:1020900000FA01F206980168086890430860069902
:1020A00001200871FFE7069900204871FFE7002032
:1020B0008DF81F00FFE79DF81F0008B080BD0000ED
:1020C00080B582B00090009820B9FFE701208DF81C
:1020D000070016E00098007938B9FFE70099002062
:1020E0004871009800F014F8FFE700990220087189
:1020F000009900200861009A012111718DF80700F4
:10210000FFE79DF8070002B080BD0000000000005E
:1021100081B0009001B0704785B0049003910292A5
:10212000019300200090049800680090039830B953
:10213000FFE70298009908440830009005E00298F3
:102140000099084414300090FFE701980099086056
:10215000002005B07047000083B001900091FFE7B8
:1021600001984079012804D1FFE702208DF80B0087
:1021700046E0019901204871FFE7FFE7019902203D
:102180000871009800F01001012000FA01F2019896
:102190000168086810430860009880B9FFE701985B
:1021A0000068006800F03E00022807D1FFE70198B0
:1021B0000168486840F001004860FFE714E00198BA
:1021C0000068006800F47810009901F01002022104
:1021D0009140884207D1FFE701980168486840F0C4
:1021E00002004860FFE7FFE7019901200871FFE75F
:1021F000019900204871FFE700208DF80B00FFE7F0
:102200009DF80B0003B0704780B582B00090009835
:1022100020B9FFE701208DF807004FE0009890F803
:10222000610040B9FFE70099002081F86000009844
:1022300000F04AF8FFE70099022081F86100009859
:10224000006800684FF6BF71CFF6F8710840009B38
:1022500019685A68DB691A431043086000980068DF
:10226000406B40F207118843009B19689A689B698C
:102270001A431043486300980068006C4FF6FF71E2
:102280008843009A1168D268104308640098006877
:10229000406B20F44010009B19681A695B691205B5
:1022A00042EA435210434863009900204866009A6E
:1022B000012182F861108DF80700FFE79DF8070003
:1022C00002B080BD0000000081B0009001B07047F6
:1022D00080B58EB00C9001F02BFB0A900C9828B9B9
:1022E000FFE701208DF8370000F0FBBC0C98016877
:1022F00001201022C4F202029142079000F0A38054
:10230000FFE70C98016801202822C4F202029142E2
:10231000079000F09880FFE70C98016801204022A8
:10232000C4F202029142079000F08D80FFE70C9802
:10233000016801205822C4F202029142079000F085
:102340008280FFE70C98016801207022C4F202022B
:102350009142079077D0FFE70C980168012088220E
:10236000C4F20202914207906DD0FFE70C98016819
:102370000120A022C4F202029142079063D0FFE73D
:102380000C9801680120B822C4F202029142079021
:1023900059D0FFE70C980168012040F21042C4F2C6
:1023A0000202914207904ED0FFE70C98016801208D
:1023B00040F22842C4F202029142079043D0FFE764
:1023C0000C980168012040F24042C4F2020291429E
:1023D000079038D0FFE70C980168012040F258427E
:1023E000C4F20202914207902DD0FFE70C980168D9
:1023F000012040F27042C4F202029142079022D0C2
:10240000FFE70C980168012040F28842C4F2020202
:102410009142079017D0FFE70C980168012040F225
:10242000A042C4F20202914207900CD0FFE70C9840
:1024300000684FF64831CBF6FD710844B0FA80F0E1
:1024400040090790FFE70798C007002800F078814F
:10245000FFE70C98406A08B1FFE7FFE70C990220FC
:1024600081F83500FFE70C99002081F83400FFE780
:102470000C9800681021C4F20201884200F08180AB
:10248000FFE70C9800682821C4F20201884278D046
:10249000FFE70C9800684021C4F20201884270D026
:1024A000FFE70C9800685821C4F20201884268D006
:1024B000FFE70C9800687021C4F20201884260D0E6
:1024C000FFE70C9800688821C4F20201884258D0C6
:1024D000FFE70C980068A021C4F20201884250D0A6
:1024E000FFE70C980068B821C4F20201884248D086
:1024F000FFE70C98006840F21041C4F202018842E4
:102500003FD0FFE70C98006840F22841C4F2020176
:10251000884236D0FFE70C98006840F24041C4F290
:10252000020188422DD0FFE70C98006840F2584124
:10253000C4F20201884224D0FFE70C98006840F200
:102540007041C4F2020188421BD0FFE70C9800687A
:1025500040F28841C4F20201884212D0FFE70C9891
:10256000006840F2A041C4F20201884209D0FFE7AE
:102570000C98006840F2B841C4F20201884207D1C9
:10258000FFE70C980168086820F00100086006E089
:102590000C980168086820F001000860FFE7FFE779
:1025A0000C9800680068C00798B1FFE701F0C0F917
:1025B0000A99401A06280BD3FFE70C99202048659A
:1025C0000C99032081F8350001208DF8370088E34D
:1025D000E6E70C98006800680B900B9848F23F0102
:1025E000CFF6106108400B900C998868D1F80CC0A8
:1025F0000B694A6940EA0C00184310438A6910438A
:10260000CA691043096A01430B9808430B900C9860
:10261000406A042808D1FFE70C99C86A096B014396
:102620000B9808430B90FFE70C984068292807D3C4
:10263000FFE70C98416801202F29069036D3FFE769
:102640000C9840683F2807D3FFE70C9841680120A9
:10265000432906902AD3FFE70C984068472807D300
:10266000FFE70C9841680120492906901ED3FFE737
:102670000C9840684F2807D3FFE70C984168012069
:102680005329069012D3FFE70C9841680020742963
:10269000059008D3FFE70C9841680020782938BFDF
:1026A00001200590FFE705980690FFE70698C00710
:1026B00028B1FFE70B9840F480100B90FFE70B98D0
:1026C0000C99096808600C98006840690B900B9899
:1026D00020F007000B900C98416A0B9808430B9070
:1026E0000C98406A04281AD1FFE70C98816A0B986D
:1026F00008430B900C98C06A80B1FFE70C98FEF776
:10270000C7FC50B1FFE70C99402048650C990120A7
:1027100081F835008DF83700E3E2FFE7FFE70B981B
:102720000C99096848610C98FEF776FA09900C98A4
:10273000C06D00F01F013F2088400999886083E147
:102740000C980168012042F60842C4F60202914248
:10275000049000F0AA80FFE70C980168012042F67F
:102760001C42C4F602029142049000F09E80FFE7F2
:102770000C980168012042F63042C4F602029142F0
:10278000049000F09280FFE70C980168012042F667
:102790004442C4F602029142049000F08680FFE7B2
:1027A0000C980168012042F65842C4F60202914298
:1027B00004907AD0FFE70C980168012042F66C4241
:1027C000C4F60202914204906FD0FFE70C980168B2
:1027D000012042F68042C4F602029142049064D085
:1027E000FFE70C980168012042F69442C4F6020209
:1027F0009142049059D0FFE70C980168012045F2FE
:102800000842C5F60202914204904ED0FFE70C98B0
:102810000168012045F21C42C5F602029142049073
:1028200043D0FFE70C980168012045F23042C5F61D
:1028300002029142049038D0FFE70C980168012011
:1028400045F24442C5F60202914204902DD0FFE7C2
:102850000C980168012045F25842C5F602029142E7
:10286000049022D0FFE70C980168012045F26C42E9
:10287000C5F602029142049017D0FFE70C98016858
:10288000012045F28042C5F60202914204900CD02C
:10289000FFE70C9800684AF66C31CAF2FD710844F3
:1028A000B0FA80F040090490FFE70498C0070028C0
:1028B00000F0BE80FFE70C980168012045F2084255
:1028C000C5F60202914203904ED0FFE70C980168D2
:1028D000012045F21C42C5F602029142039043D00A
:1028E000FFE70C980168012045F23042C5F602026C
:1028F0009142039038D0FFE70C980168012045F21F
:102900004442C5F60202914203902DD0FFE70C9895
:102910000168012045F25842C5F602029142039037
:1029200022D0FFE70C980168012045F26C42C5F601
:1029300002029142039017D0FFE70C980168012032
:1029400045F28042C5F60202914203900CD0FFE7A7
:102950000C9800684AF66C31CAF2FD710844B0FA6E
:1029600080F040090390FFE70398C00708B1FFE734
:10297000FFE70C99022081F83500FFE70C99002051
:1029800081F83400FFE70C98006800680B900B9802
:102990006FF310100B900C988068402803D1FFE76C
:1029A0001020029008E00C9880688038B0FA80F01F
:1029B000400980030290FFE702980C99D1F80CE0DF
:1029C000D1F810C04B698A6940EADE0040EADC00B9
:1029D00040EAD30040EAD200CA6940EAD200096A5C
:1029E00040EA11110B9808430B900B980C99096859
:1029F00008600C9908684AF6F832CAF2FD72104471
:102A00004CF6CD42CCF6CC42A0FB02026FF00300A4
:102A100000EA9200C8650C98FEF7FEF808900C9842
:102A2000C06D00F01F0101208840089948600AE04D
:102A30000C99402048650C99032081F8350001204D
:102A40008DF837004DE1FFE70C9801680120102256
:102A5000C4F202029142019000F00381FFE70C985A
:102A6000016801202822C4F202029142019000F084
:102A7000F880FFE70C98016801204022C4F20202AE
:102A80009142019000F0ED80FFE70C980168012071
:102A90005822C4F202029142019000F0E280FFE766
:102AA0000C98016801207022C4F202029142019048
:102AB00000F0D780FFE70C98016801208822C4F25B
:102AC00002029142019000F0CC80FFE70C9801686F
:102AD0000120A022C4F202029142019000F0C180C4
:102AE000FFE70C9801680120B822C4F2020291426B
:102AF000019000F0B680FFE70C980168012040F2D9
:102B00001042C4F202029142019000F0AA80FFE755
:102B10000C980168012040F22842C4F2020291425E
:102B2000019000F09E80FFE70C980168012040F2C0
:102B30004042C4F202029142019000F09280FFE70D
:102B40000C980168012040F25842C4F202029142FE
:102B5000019000F08680FFE70C980168012040F2A8
:102B60007042C4F20202914201907AD0FFE70C98C1
:102B70000168012040F28842C4F2020291420190B1
:102B80006FD0FFE70C980168012040F2A042C4F228
:102B900002029142019064D0FFE70C980168012085
:102BA00040F2B842C4F202029142019059D0FFE7CC
:102BB0000C980168012045F20842C5F602029142D4
:102BC00001904ED0FFE70C980168012045F21C42AD
:102BD000C5F602029142019043D0FFE70C980168CC
:102BE000012045F23042C5F602029142019038D0F0
:102BF000FFE70C980168012045F24442C5F6020245
:102C0000914201902DD0FFE70C980168012045F218
:102C10005842C5F602029142019022D0FFE70C987B
:102C20000168012045F26C42C5F602029142019012
:102C300017D0FFE70C980168012045F28042C5F6E5
:102C40000202914201900CD0FFE70C9800684AF60E
:102C50006C31CAF2FD710844B0FA80F0400901906D
:102C6000FFE70198C00790B3FFE70C98FEF7BCF8A8
:102C70000C988068802804D1FFE70C9900204860F8
:102C8000FFE70C990879096E08600C98416E806E18
:102C900048600C98406888B1FFE70C9840680828A5
:102CA0000CD8FFE70C98FEF75BF90C98C16E00207A
:102CB00008600C98016F406F486007E00C99002095
:102CC000C8660C9908670C994867FFE7FFE70C99FD
:102CD000002048650C9A012182F835108DF83700E4
:102CE000FFE79DF837000EB080BD00000000000037
:102CF00080B588B0069005910492039300208DF86A
:102D00000B00069820B9FFE701208DF81F006CE347
:102D1000FFE7069890F83400012804D1FFE702206D
:102D20008DF81F0061E30699012081F83400FFE768
:102D3000FFE7069890F83500012840F04383FFE74D
:102D40000699022081F8350006990020486506980A
:102D500000681021C4F20201884200F08180FFE780
:102D6000069800682821C4F20201884278D0FFE763
:102D7000069800684021C4F20201884270D0FFE743
:102D8000069800685821C4F20201884268D0FFE723
:102D9000069800687021C4F20201884260D0FFE703
:102DA000069800688821C4F20201884258D0FFE7E3
:102DB00006980068A021C4F20201884250D0FFE7C3
:102DC00006980068B821C4F20201884248D0FFE7A3
:102DD0000698006840F21041C4F2020188423FD0D8
:102DE000FFE70698006840F22841C4F202018842D9
:102DF00036D0FFE70698006840F24041C4F2020175
:102E000088422DD0FFE70698006840F25841C4F28E
:102E10000201884224D0FFE70698006840F2704122
:102E2000C4F2020188421BD0FFE70698006840F216
:102E30008841C4F20201884212D0FFE70698006878
:102E400040F2A041C4F20201884209D0FFE706988F
:102E5000006840F2B841C4F20201884207D1FFE79E
:102E600006980168086820F00100086006E00698EE
:102E70000168086820F001000860FFE706980599DE
:102E8000049A039BFEF77CF9069801680120102242
:102E9000C4F202029142019000F0A380FFE706987D
:102EA000016801202822C4F202029142019000F040
:102EB0009880FFE70698016801204022C4F20202D0
:102EC0009142019000F08D80FFE706980168012093
:102ED0005822C4F202029142019000F08280FFE782
:102EE0000698016801207022C4F20202914201900A
:102EF00077D0FFE70698016801208822C4F2020219
:102F0000914201906DD0FFE7069801680120A02250
:102F1000C4F202029142019063D0FFE70698016873
:102F20000120B822C4F202029142019059D0FFE779
:102F300006980168012040F21042C4F20202914258
:102F400001904ED0FFE706980168012040F2284228
:102F5000C4F202029142019043D0FFE70698016853
:102F6000012040F24042C4F202029142019038D066
:102F7000FFE706980168012040F25842C4F20202BD
:102F8000914201902DD0FFE706980168012040F2A0
:102F90007042C4F202029142019022D0FFE70698EB
:102FA0000168012040F28842C4F20202914201907D
:102FB00017D0FFE706980168012040F2A042C4F252
:102FC0000202914201900CD0FFE7069800684FF68C
:102FD0004831CBF6FD710844B0FA80F04009019009
:102FE000FFE70198C007A8B1FFE7069800680068EE
:102FF0000B2161F344000699096808600698006C8B
:1030000038B1FFE706980168086840F008000860DA
:10301000FFE714E0069800680068052161F34300AB
:103020000699096808600698006C38B1FFE70698B1
:103030000168086840F004000860FFE7FFE70698B1
:10304000016801201022C4F202029142009000F0B7
:103050000381FFE70698016801202822C4F20202DA
:103060009142009000F0F880FFE706980168012087
:103070004022C4F202029142009000F0ED80FFE78E
:103080000698016801205822C4F202029142009081
:1030900000F0E280FFE70698016801207022C4F288
:1030A00002029142009000F0D780FFE70698016885
:1030B00001208822C4F202029142009000F0CC80EC
:1030C000FFE7069801680120A022C4F202029142A3
:1030D000009000F0C180FFE7069801680120B82247
:1030E000C4F202029142009000F0B680FFE7069819
:1030F0000168012040F21042C4F2020291420090A5
:1031000000F0AA80FFE706980168012040F22842FB
:10311000C4F202029142009000F09E80FFE7069800
:103120000168012040F24042C4F202029142009044
:1031300000F09280FFE706980168012040F25842B3
:10314000C4F202029142009000F08680FFE70698E8
:103150000168012040F27042C4F2020291420090E4
:103160007AD0FFE706980168012040F28842C4F255
:103170000202914200906FD0FFE70698016801209B
:1031800040F2A042C4F202029142009064D0FFE7F4
:1031900006980168012040F2B842C4F2020291424E
:1031A000009059D0FFE706980168012045F20842D7
:1031B000C5F60202914200904ED0FFE706980168E2
:1031C000012045F21C42C5F602029142009043D014
:1031D000FFE706980168012045F23042C5F6020279
:1031E0009142009038D0FFE706980168012045F22F
:1031F0004442C5F60202914200902DD0FFE70698A6
:103200000168012045F25842C5F602029142009041
:1032100022D0FFE706980168012045F26C42C5F60E
:1032200002029142009017D0FFE706980168012042
:1032300045F28042C5F60202914200900CD0FFE7B1
:10324000069800684AF66C31CAF2FD710844B0FA7B
:1032500080F040090090FFE70098C007D0B1FFE779
:103260000698006E0068C003002807D5FFE706989F
:10327000016E086840F480700860FFE70698C06E31
:1032800038B1FFE70698C16E086840F480700860A6
:10329000FFE7FFE7069800681021C4F202018842A8
:1032A00000F08180FFE7069800682821C4F202013F
:1032B000884278D0FFE7069800684021C4F20201F6
:1032C000884270D0FFE7069800685821C4F20201D6
:1032D000884268D0FFE7069800687021C4F20201B6
:1032E000884260D0FFE7069800688821C4F2020196
:1032F000884258D0FFE706980068A021C4F2020176
:10330000884250D0FFE706980068B821C4F2020155
:10331000884248D0FFE70698006840F21041C4F2A6
:10332000020188423FD0FFE70698006840F228413A
:10333000C4F20201884236D0FFE70698006840F2E6
:103340004041C4F2020188422DD0FFE70698006890
:1033500040F25841C4F20201884224D0FFE70698A7
:10336000006840F27041C4F2020188421BD0FFE7BE
:103370000698006840F28841C4F20201884212D0E7
:10338000FFE70698006840F2A041C4F202018842BB
:1033900009D0FFE70698006840F2B841C4F2020184
:1033A000884207D1FFE706980168086840F00100ED
:1033B000086006E006980168086840F001000860AF
:1033C000FFE70DE006994FF400604865FFE70699B6
:1033D000002081F83400FFE701208DF80B00FFE7A3
:1033E0009DF80B008DF81F00FFE79DF81F0008B047
:1033F00080BD00000000000080B584B0039000F0A4
:1034000097FA0290039801900198013048B1FFE7C4
:1034100040F2EC00C2F200000178019808440190EB
:10342000FFE7FFE700F084FA0299401A0199884209
:1034300001D2FFE7F6E704B080BD00000000000005
:1034400080B584B0ADF80E00BDF80E0001460291C3
:1034500001280ED0FFE7029808281ED0FFE7029847
:10346000B0F5806F2ED0FFE70298B0F5006F29D03D
:103470002BE04BF2F960C0F60000694648604BF261
:103480003170C0F60000086001210022C5F602027A
:103490000223104607F004F818E04DF28110C0F640
:1034A0000000694648604DF24910C0F6000008600F
:1034B000082140F20042C5F602021023104606F031
:1034C000EFFF03E007F060FC00E0FFE704B080BD21
:1034D00080B582B0ADF806008820C5F6000000680F
:1034E000BDF8061008420BD0FFE7BDF806008821A2
:1034F000C5F600010860BDF80600FFF7A1FFFFE771
:1035000002B080BD0000000090B00F900E9100202E
:103510000D908020C5F600000A90FFE70E98006825
:103520000D99C840002800F0CF81FFE70E98006891
:103530000D9A0121914008400C900C98002800F051
:10354000BF81FFE70E98406800F00300012807D014
:10355000FFE70E98406800F0030002282FD1FFE734
:103560000F9880680B900D984100032000FA01F13C
:103570000B9888430B900E98C0680D99490000FA8B
:1035800001F10B9808430B900B980F9988600F98E6
:1035900040680B900D99012000FA01F10B988843C7
:1035A0000B900E984068C0F300100D9900FA01F1DD
:1035B0000B9808430B900B980F994860FFE70E9803
:1035C000406800F00300032818D0FFE70F98C06898
:1035D0000B900D984100032000FA01F10B988843ED
:1035E0000B900E9880680D99490000FA01F10B9834
:1035F00008430B900B980F99C860FFE70E9840683E
:1036000000F00300022826D1FFE70F980D996FF014
:10361000030202EA51010844006A0B900D9800F081
:10362000070081000F2000FA01F10B9888430B90EE
:103630000E9800690D9901F00701890000FA01F167
:103640000B9808430B900B980F990D9B02EA5302BD
:1036500011440862FFE70F9800680B900D98410035
:10366000032000FA01F10B9888430B900E984068F4
:1036700000F003000D99490000FA01F10B9808438E
:103680000B900B980F9908600E988079800700289E
:1036900000F01581FFE7FFE744F25450C5F6020041
:1036A000016841F002010160006800F00200099029
:1036B0000998FFE70D9820F0030040F20841C5F695
:1036C000000140580B900D9800F0030081000F207E
:1036D00000FA01F10B9888430B900F980021C5F672
:1036E0000201884203D1FFE7002008907AE00F989A
:1036F00040F20041C5F60201884203D1FFE70120F4
:1037000007906CE00F9840F60001C5F60201884270
:1037100003D1FFE7022006905EE00F9840F60041DB
:10372000C5F60201884203D1FFE70320059050E06F
:103730000F9841F20001C5F60201884203D1FFE76C
:103740000420049042E00F9841F20041C5F60201C6
:10375000884203D1FFE70520039034E00F9841F63B
:103760000001C5F60201884203D1FFE7062002905E
:1037700026E00F9841F60041C5F60201884203D1C8
:10378000FFE70720019018E00F9842F20001C5F60C
:103790000201884203D1FFE7082000900AE00F9958
:1037A00042F20042C5F602020A20914208BF0920F7
:1037B0000090FFE700980190FFE701980290FFE773
:1037C00002980390FFE703980490FFE704980590A0
:1037D000FFE705980690FFE706980790FFE7079830
:1037E0000890FFE708980D9901F00301890000FA9D
:1037F00001F10B9808430B900B980D9921F00301F0
:1038000040F20842C5F6000288504FF0B040006810
:103810000B900C990B9888430B900E988079C006FA
:10382000002805D5FFE70C990B9808430B90FFE79C
:103830000B984FF0B04108600420C5F60000006806
:103840000B900C990B9888430B900E98807980060A
:10385000002805D5FFE70C990B9808430B90FFE76C
:103860000B980421C5F6000108600A9840680B9087
:103870000C990B9888430B900E988079800700284C
:1038800005D5FFE70C990B9808430B90FFE70B98C1
:103890000A9948600A9800680B900C990B98884325
:1038A0000B900E988079C00728B1FFE70C990B9810
:1038B00008430B90FFE70B980A990860FFE7FFE7C2
:1038C0000D9801300D9029E610B0704700000000FF
:1038D00082B00190ADF8021001980069BDF80210A5
:1038E000084204D0FFE701208DF8010003E000202A
:1038F0008DF80100FFE79DF8010002B0704700005D
:1039000082B00190ADF802108DF801209DF8010001
:1039100028B1FFE7BDF802000199886105E0BDF814
:103920000200000401998861FFE702B070470000BF
:1039300042F2A850C2F20000006870470000000088
:1039400083B001900091019890F8410020283BD16C
:10395000FFE7FFE7019890F84000012804D1FFE756
:1039600002208DF80B0033E00199012081F840001E
:10397000FFE7FFE70199242081F8410001980168E1
:10398000086820F00100086001980168086820F4C8
:1039900080500860009A0198016808681043086028
:1039A00001980168086840F0010008600199202032
:1039B00081F84100FFE70199002081F84000FFE70E
:1039C00000208DF80B0003E002208DF80B00FFE7CC
:1039D0009DF80B0003B0704784B0029001910298EB
:1039E00090F84100202840D1FFE7FFE7029890F8C7
:1039F0004000012804D1FFE702208DF80F0038E0D5
:103A00000299012081F84000FFE7FFE70299242096
:103A100081F8410002980168086820F00100086000
:103A20000298006800680090009820F47060009090
:103A30000199009840EA01200090009802990968D5
:103A4000086002980168086840F001000860029967
:103A5000202081F84100FFE70299002081F8400012
:103A6000FFE700208DF80F0003E002208DF80F0023
:103A7000FFE79DF80F0004B0704700000000000051
:103A800080B582B00090009820B9FFE701208DF842
:103A9000070073E0009890F8410040B9FFE70099F3
:103AA000002081F84000009800F0F2FAFFE700994A
:103AB000242081F8410000980168086820F0010086
:103AC000086000980168406820F070600861009804
:103AD0000168886820F4004088600098C068012868
:103AE00007D1FFE700980168806840F400408860D3
:103AF00006E000980168806840F404408860FFE7B1
:103B00000098C068022806D1FFE7009801684FF4CA
:103B100000604860FFE700980168486848F20002CA
:103B2000C0F200221043486000980168C86820F481
:103B30000040C860009A116810695369926918437F
:103B400040EA0220C860009A1168D069126A1043E6
:103B5000086000980168086840F00100086000995A
:103B600000204864009A202182F8411000990863DF
:103B7000009981F842008DF80700FFE79DF80700E3
:103B800002B080BD0000000010B588B084460C98DB
:103B90000B98DDF828E0CDF818C0ADF81610ADF898
:103BA0001420ADF81230ADF81000069890F84100DE
:103BB000202840F02681FFE70A9820B1FFE7BDF8F2
:103BC000100040B9FFE706994FF4007048640120E7
:103BD0008DF81F0019E1FFE7069890F840000128D2
:103BE00004D1FFE702208DF81F000EE106990120A5
:103BF00081F84000FFE7FFE7FFF79AFE0390069881
:103C000003996A4611604FF400410122192304F020
:103C100003F920B1FFE701208DF81F00F5E00699B8
:103C2000222081F841000699402081F8420006993F
:103C3000002048640A99069A5162BDF81010069A4D
:103C40005185069948630698BDF81610BDF81420F2
:103C5000BDF81230DDF830C0039CEE46CEF80440CB
:103C6000CEF800C003F0ECFF50B1FFE7FFE7069984
:103C7000002081F84000FFE701208DF81F00C4E01C
:103C80000698408DB0F5807F14D3FFE70699FF209A
:103C900008850698BDF8161090F82820EC4642F2E8
:103CA0000043C8F20003CCF800304FF0807304F0FA
:103CB00087F814E00698408D069908850698BDF8A7
:103CC000161090F82820EC4642F20043C8F2000398
:103CD000CCF800304FF0007304F072F8FFE7FFE714
:103CE00006980C9B03996A4611600421002204F097
:103CF00093F820B1FFE701208DF81F0085E00698BA
:103D00000068406A0699496A08700699486A013055
:103D100048620699088D013808850699488D013852
:103D200048850698408DE8B3FFE70698008DC8BB2C
:103D3000FFE706980C9B03996A46116080210022D8
:103D400004F06AF820B1FFE701208DF81F005CE065
:103D50000698408DB0F5807F11D3FFE70699FF20CC
:103D600008850698BDF8161090F82820EC46002328
:103D7000CCF800304FF0807304F022F811E0069880
:103D8000408D069908850698BDF8161090F82820F1
:103D9000EC460023CCF800304FF0007304F010F82C
:103DA000FFE7FFE7FFE70698408D002898D1FFE77F
:103DB00006980C99039A04F077F820B1FFE70120E8
:103DC0008DF81F0021E0069801682020C86106993F
:103DD0000A6851684EF60003CFF60063194051603F
:103DE000069981F841000699002081F84200FFE71A
:103DF0000699002081F84000FFE700208DF81F00A1
:103E000003E002208DF81F00FFE79DF81F0008B0B7
:103E100010BD00000000000010B588B084460C986A
:103E20000B98DDF828E0CDF818C0ADF81610ADF805
:103E30001420ADF81230ADF81000069890F841004B
:103E4000202840F01B81FFE70A9820B1FFE7BDF86A
:103E5000100040B9FFE706994FF400704864012054
:103E60008DF81F000EE1FFE7069890F8400001284A
:103E700004D1FFE702208DF81F0003E1069901201D
:103E800081F84000FFE7FFE7FFF752FD0390069837
:103E900003996A4611604FF400410122192303F08F
:103EA000BBFF20B1FFE701208DF81F00EAE0069973
:103EB000212081F841000699402081F842000699AE
:103EC000002048640A99069A5162BDF81010069ABB
:103ED0005185069948630698BDF81610BDF8142060
:103EE000BDF81230DDF830C0039CEE46CEF8044039
:103EF000CEF800C003F004FF50B1FFE7FFE70699DA
:103F0000002081F84000FFE701208DF81F00B9E094
:103F10000698408DB0F5807F11D3FFE70699FF200A
:103F200008850698BDF8161090F82820EC46002366
:103F3000CCF800304FF0807303F042FF11E0069898
:103F4000408D069908850698BDF8161090F828202F
:103F5000EC460023CCF800304FF0007303F030FF44
:103F6000FFE7FFE706980C99039A03F0E5FF20B1FD
:103F7000FFE701208DF81F0084E006980168406A81
:103F8000007888620699486A013048620699488D2F
:103F9000013848850699088D013808850698408DB6
:103FA000E8B3FFE70698008DC8BBFFE706980C9BB7
:103FB00003996A4611608021002203F02DFF20B191
:103FC000FFE701208DF81F005CE00698408DB0F5FA
:103FD000807F11D3FFE70699FF2008850698BDF87A
:103FE000161090F82820EC460023CCF800304FF053
:103FF000807303F0E5FE11E00698408D0699088570
:104000000698BDF8161090F82820EC460023CCF84E
:1040100000304FF0007303F0D3FEFFE7FFE7FFE748
:104020000698408D00289DD1FFE706980C99039AC9
:1040300003F03AFF20B1FFE701208DF81F0021E0D7
:10404000069801682020C86106990A6851684EF6F2
:104050000003CFF6006319405160069981F84100D2
:104060000699002081F84200FFE70699002081F8B8
:104070004000FFE700208DF81F0003E002208DF8CC
:104080001F00FFE79DF81F0008B010BD00000000F2
:1040900080B5BEB03D90002001903C903B903A909E
:1040A000399038903790369035903490339005A8F9
:1040B000B821FCF761F93D98006845F20041C4F26F
:1040C000000188426BD1FFE708200590002027906F
:1040D00005A800F0D9FD08B1FFE7FFE7FFE744F2CC
:1040E0004050C5F60200016841F00201016000681D
:1040F00000F0020004900498FFE7FFE744F240500C
:10410000C5F60200016841F004010160006800F09A
:10411000040003900398FFE7FFE744F27041C5F6FF
:104120000201086820F001000860086820F08000A3
:104130000860086820F004000860FFE7C02038909D
:1041400012203990002000903A9002203B900420E9
:104150003C9040F20040C5F6020038A9FFF7D4F9C0
:1041600000984FF4004133910121349135903690FD
:1041700040F60000C5F6020033A9FFF7C5F9FFE7D6
:1041800044F24850C5F60200016841F40011016094
:10419000006800F4001002900298FFE7FFE73EB0CD
:1041A00080BD00000000000040F2EC00C2F2000000
:1041B000027842F2A851C2F2000108681044086077
:1041C000704700000000000080B582B0032000F0BE
:1041D000FFFC01F021FF44F21842C5F6020211680B
:1041E000C1F3032340F2FC61C0F60101CB5C03F094
:1041F0001F03D84000900098126802F00F02895CFB
:1042000001F01F01C84040F20801C2F2000108603D
:10421000009840F20401C2F2000108600F2000F093
:1042200013F820B1FFE701208DF8070005E000F04A
:104230009BFC00208DF80700FFE79DF8070002B007
:1042400080BD00000000000080B582B0009040F208
:10425000EC00C2F20000007820B9FFE701208DF8E1
:10426000070030E040F20400C2F20000006840F2B3
:10427000EC01C2F200010A784FF47A71B1FBF2F15D
:10428000B0FBF1F002F070FD20B1FFE701208DF8E6
:10429000070018E000980F280DD8FFE700994FF0AD
:1042A000FF30002200F07CFC009840F2F001C2F2E6
:1042B0000001086003E001208DF8070003E0002002
:1042C0008DF80700FFE79DF8070002B080BD0000F1
:1042D000B0B586B0049003910292FFE7049890F87D
:1042E000A000012804D1FFE702208DF8170049E063
:1042F0000499012081F8A000FFE7FFE7049902205C
:1043000081F8A100049A0298342100FB0121009158
:104310000398019002684368D0F808C0D0F80CE018
:1043200004694569CD648C64C1F844E0C1F840C0BB
:10433000CB638A638269C369D0F820C0D0F824E0D7
:10434000846AC56A4D660C66C1F85CE0C1F858C065
:104350004B650A65006B886604980399029A04F01D
:104360000FF90498016801204862049981F8A100BE
:10437000FFE70499002081F8A000FFE700208DF8F6
:104380001700FFE79DF8170006B0B0BD0000000061
:1043900081B0009001B0704780B584B0039003985D
:1043A0000068806B029003980068406B01909DF854
:1043B00008004007002824D5FFE79DF804004007C7
:1043C00000281ED5FFE703980168486B20F0040021
:1043D0004863039801680420C863039AD2F8A410C4
:1043E00041F00101C2F8A410039981F8A100FFE790
:1043F0000399002081F8A000FFE70398FFF7C8FFAA
:10440000FFE79DF808008007002825D5FFE79DF805
:104410000400800700281FD5FFE703980168486B58
:1044200020F002004863039801680220C8630399E2
:10443000D1F8A40040F00200C1F8A40003990420C0
:1044400081F8A100FFE70399002081F8A000FFE7B1
:104450000398FFF79DFFFFE79DF80800C007E0B154
:10446000FFE79DF80400C007B8B1FFE703980168B3
:10447000486B20F001004863039801680120C8637D
:10448000039981F8A100FFE70399002081F8A000BB
:10449000FFE7039800F0D8F8FFE79DF80800000751
:1044A00000281ED5FFE79DF804000007002818D556
:1044B000FFE703980168486B20F008004863039801
:1044C00001680820C8630399012081F8A100FFE773
:1044D0000399002081F8A000FFE7039800F0ECF9B1
:1044E000FFE704B080BD000080B584B00290029860
:1044F00020B9FFE701208DF80F009EE0029890F8A8
:10450000A10040B9FFE70299002081F8A0000298BD
:1045100000F09EF8FFE70299022081F8A1000298BE
:104520000168886920F070408861029A11685068BB
:10453000D2F808C0D36840EA0C001843126902435D
:104540008869104388610298016888684FF6000204
:10455000CFF2000210408860029840690004019088
:104560000198029B19689B69034388681843886017
:1045700002980168C8681040C8600298C0690004C9
:1045800001900198029B19681B6A0343C86818438D
:10459000C860029801680869104008610298406A82
:1045A000000401900198029B19689B6A0343086903
:1045B00018430861029801684869104048610298F0
:1045C000C06A000401900198029A1168126B0243BC
:1045D000486910434861029890F835000002019044
:1045E000029890F836000004009002980168C86AAA
:1045F00000F07F40C862009801990143029890F84A
:1046000034200A430168C86A1043C86202980168EE
:10461000486B40F00600486302980168886940F0E2
:104620000100886102990020C1F8A400029A0121CA
:1046300082F8A1108DF80F00FFE79DF80F0004B07D
:1046400080BD00000000000081B0009001B0704704
:1046500010B5C4B0439000204290419040903F90EC
:104660003E9010A8B821FBF787FE4398006841F2FE
:104670000001C5F20001884240F01981FFE74FF0C8
:1046800000501090022019900C211A911B901C9040
:1046900006201D904FF440601E9000201F90209037
:1046A00010A800F0F1FA48B1FFE743F29A00C0F613
:1046B000050040F27731FDF767F8FFE7FFE744F2C6
:1046C0004450C5F60200016841F00801016000682D
:1046D00000F008000F900F98FFE7FFE744F240500A
:1046E000C5F60200016841F004010160006800F0B5
:1046F00004000E900E98FFE7FFE744F24050C5F625
:104700000200016841F001010160006800F0010051
:104710000D900D98FFE7FFE744F24050C5F6020008
:10472000016841F002010160006800F002000C9095
:104730000C98FFE7FFE744F24050C5F6020001681D
:1047400041F010010160006800F010000B900B9820
:10475000FFE7FFE744F24050C5F60200016841F070
:1047600008010160006800F008000A900A98FFE75D
:10477000012009903E90022002903F900020059079
:1047800040900320039041900B20429040F600009F
:10479000C5F6020007903EA90691FEF7B5FEDDF8CA
:1047A00008C0039A059B069907984FF0F20ECDF8C2
:1047B000F8E0CDF8FCC0409341920E220092429264
:1047C000FEF7A2FE0098DDF808C0039A059B069943
:1047D00048F2382ECDF8F8E0CDF8FCC04093419275
:1047E00042900020C5F602000490FEF78DFE029B69
:1047F0000398059A06993E903F9340924190092074
:10480000429040F20040C5F602000190FEF77CFEA7
:104810000098DDF808C0039A059B06994FF4B04E46
:10482000CDF8F8E0CDF8FCC040934192429041F2BF
:104830000000C5F60200FEF767FE009A0198039B90
:10484000DDF814C00699DDF808E04FF406443E9404
:10485000CDF8FCE0CDF800C141934292FEF754FE42
:10486000DDF808C0039A0498059B06994FF4807EF2
:10487000CDF8F8E0CDF8FCC0409341920D22429271
:10488000FEF742FE059A06990798099B4FF4007CB3
:10489000CDF820C0CDF8F8C03F9340924192FEF78A
:1048A00033FE07980899099AFFF72AF8FFE744B002
:1048B00010BD00000000000081B0009001B0704702
:1048C00080B586B0049003910292FFE7049890F8B7
:1048D000A000012804D1FFE702208DF8170029E08D
:1048E0000499012081F8A000FFE7FFE70499022066
:1048F00081F8A100049A0298342100FB012038308D
:10490000019003980199486104980199029A03F073
:1049100037FE0498016801204862049981F8A100DB
:10492000FFE70499002081F8A000FFE700208DF840
:104930001700FFE79DF8170006B080BD00000000DB
:1049400080B586B00490039102920193FFE704982A
:1049500090F8A000012804D1FFE702208DF817008D
:1049600036E00499012081F8A000FFE7FFE70499F1
:10497000022081F8A100049A0198342100FB012053
:1049800038300090039800990860039800998A6A6B
:104990001044486002980099886002980099CA6A99
:1049A0001044C86004980099019A03F0E9FD049846
:1049B000016801204862049981F8A100FFE7049989
:1049C000002081F8A000FFE700208DF81700FFE726
:1049D0009DF8170006B080BD80B586B004900391A5
:1049E00002920193FFE7049890F8A000012804D1F7
:1049F000FFE702208DF8170036E00499012081F8C6
:104A0000A000FFE7FFE70499022081F8A100049AC3
:104A10000198342100FB0120383000900398009960
:104A20000A6810444860029800998A681044C86077
:104A300003980099886202980099C86204980099C6
:104A4000019A03F09DFD04980168012048620499D1
:104A500081F8A100FFE70499002081F8A000FFE79A
:104A600000208DF81700FFE79DF8170006B080BD05
:104A700080B582B00190019840784EF69851CEF200
:104A8000000108600198007898B3FFE7019840683A
:104A90004EF69C51CEF200010860DDF804C0CDF85E
:104AA00000C09CF80C0000079CF80B1040EA016065
:104AB0009CF800109CF808209CF809309CF80AE04B
:104AC00040EACE409CF80DE040EA8E409CF80EE0B3
:104AD00040EA4E409CF80FC040EA0C4040EA0320F8
:104AE00040EA420008434EF6A051CEF200010860B1
:104AF0000BE04EF69C51CEF20001002008604EF60D
:104B0000A051CEF200010860FFE702B080BD0000B6
:104B1000BFF35F8F4EF62451CEF20001086820F4F7
:104B2000803008604EF69451CEF2000100200860FB
:104B3000704700000000000081B00090009840F035
:104B400001004EF69451CEF2000108604EF6245159
:104B5000CEF20001086840F480300860BFF34F8F48
:104B6000BFF36F8F01B07047704700000000000076
:104B700080B582B0ADF80600BDF9060005F004F876
:104B800002B080BD0000000080B582B0ADF8060024
:104B9000BDF9060005F014F802B080BD0000000069
:104BA00080B586B0ADF816000491039205F020F8A8
:104BB0000290BDF91600019002980499039A03F03F
:104BC0009BFE0146019805F01BF806B080BD000071
:104BD00080B582B00190019805F036F802B080BD32
:104BE00080B584B0029044F60C00C5F6020000685F
:104BF00000F004010020B0EB910F13D1FFE744F661
:104C00000C00C5F60200006800F007000299884217
:104C100004D0FFE701208DF80F002EE000208DF872
:104C20000F002AE044F60C01C5F60201086820F0E6
:104C30000700029A10430860FEF77AFE0190FFE732
:104C400044F60400C5F60200006800F4005100209C
:104C5000B0EB513F0DD1FFE7FEF76AFE0199401A14
:104C6000B0F57A7F04D9FFE701208DF80F0004E04A
:104C7000E6E700208DF80F00FFE79DF80F0004B075
:104C800080BD00000000000080B59AB018900020A0
:104C90008DF857008DF856001898C0780007002846
:104CA00048D5FFE71898806E149078B1FFE7149804
:104CB000B0F5801F13D0FFE71498B0F5001F16D091
:104CC000FFE71498B0F5401F19D019E044F22C41C9
:104CD000C5F60201086840F40030086014E0189836
:104CE0000430022103F05CFE8DF857000CE01898A8
:104CF0002430022103F03CFF8DF8570004E003E06C
:104D000001208DF85700FFE79DF8570060B9FFE7D5
:104D100044F25041C5F60201086820F44010189A88
:104D2000926E1043086004E09DF857008DF856001D
:104D3000FFE7FFE718984078C007002840D0FFE75A
:104D40001898406D1390042820D81399DFE801F0DB
:104D5000030C141C1D0044F22C41C5F60201086826
:104D600040F40030086015E018980430002103F08A
:104D700017FE8DF857000DE018982430002103F03D
:104D8000F7FE8DF8570005E004E003E001208DF800
:104D90005700FFE79DF8570060B9FFE744F2504124
:104DA000C5F60201086820F00700189A526D1043FA
:104DB000086004E09DF857008DF85600FFE7FFE714
:104DC000189840788007002851D5FFE71898806D23
:104DD0001290B0B1FFE7129840281BD0FFE712985D
:104DE00080281FD0FFE71298C02823D0FFE7129831
:104DF000B0F5807F1FD0FFE71298B0F5A07F1BD0E1
:104E00001BE044F22C41C5F60201086840F4003072
:104E1000086016E018980430002103F0C1FD8DF8F9
:104E200057000EE018982430002103F0A1FE8DF801
:104E3000570006E005E004E003E001208DF857008C
:104E4000FFE79DF8570060B9FFE744F25041C5F60F
:104E50000201086820F4E070189A926D104308600F
:104E600004E09DF857008DF85600FFE7FFE718981B
:104E700040784007002854D5FFE71898C06D11907E
:104E8000C8B1FFE71198B0F5007F1DD0FFE711987A
:104E9000B0F5806F20D0FFE71198B0F5C06F23D038
:104EA000FFE71198B0F5006F1FD0FFE71198B0F53C
:104EB000206F1BD01BE044F22C41C5F602010868AC
:104EC00040F40030086016E018980430002103F028
:104ED00067FD8DF857000EE018982430002103F08C
:104EE00047FE8DF8570006E005E004E003E00120EE
:104EF0008DF85700FFE79DF8570060B9FFE744F2CF
:104F00005041C5F60201086820F46060189AD26D1D
:104F10001043086004E09DF857008DF85600FFE745
:104F2000FFE71898C078800700283ED5FFE718985B
:104F3000806C1090F0B1FFE71098102808D0FFE7C0
:104F4000109820280DD0FFE71098302811D012E0DB
:104F500044F22C41C5F60201086840F400300860B4
:104F60000DE018980430022103F01AFD8DF8570067
:104F700005E004E003E001208DF85700FFE79DF80D
:104F8000570060B9FFE744F24C41C5F602010868DA
:104F900020F03000189A926C1043086004E09DF8ED
:104FA00057008DF85600FFE7FFE718984078C006D5
:104FB00000284ED5FFE71898006E0F90A0B1FFE7CC
:104FC0000F98B0F5805F18D0FFE70F98B0F5005F3D
:104FD0001BD0FFE70F98B0F5405F1ED0FFE70F989A
:104FE000B0F5804F1AD01AE044F22C41C5F6020108
:104FF000086840F40030086015E01898043000217B
:1050000003F0CEFC8DF857000DE0189824300021F5
:1050100003F0AEFD8DF8570005E004E003E0012049
:105020008DF85700FFE79DF8570060B9FFE744F29D
:105030005041C5F60201086820F4E040189A126E4B
:105040001043086004E09DF857008DF85600FFE714
:10505000FFE718984078800600284CD5FFE718989D
:10506000406E0E90C8B1FFE70E98B0F5803F15D0A6
:10507000FFE70E98B0F5003F18D0FFE70E98B0F5A7
:10508000403F1BD0FFE70E98B0F5802F17D0FFE709
:105090000E98B0F5A02F13D013E016E01898043046
:1050A000012103F07DFC8DF857000EE018982430A4
:1050B000012103F05DFD8DF8570006E005E004E0F6
:1050C00003E001208DF85700FFE79DF8570060B915
:1050D000FFE744F25041C5F60201086820F4E020E1
:1050E000189A526E1043086004E09DF857008DF83E
:1050F0005600FFE7FFE7189840784006002854D58F
:10510000FFE71898D0F8AC000D90F0B1FFE70D98CC
:10511000B0F1805F1AD0FFE70D98B0F1005F1DD0AD
:10512000FFE70D98B0F1405F20D0FFE70D98B0F198
:10513000804F1CD0FFE70D98B0F1A04F18D0FFE7CB
:105140000D98B0F1C04F14D014E017E01898043057
:10515000012103F025FC8DF857000FE0189824304A
:10516000012103F005FD8DF8570007E006E005E09A
:1051700004E003E001208DF85700FFE79DF8570099
:1051800068B9FFE744F25841C5F60201086820F00B
:10519000E040189AD2F8AC201043086004E09DF873
:1051A00057008DF85600FFE7FFE718984078000693
:1051B00000283BD5FFE71898406F0C90D8B1FFE767
:1051C0000C98B0F1805F05D0FFE70C98B0F1005F5C
:1051D00009D011E044F22C41C5F60201086840F400
:1051E000003008600CE018980430012103F0D8FB6F
:1051F0008DF8570004E003E001208DF85700FFE729
:105200009DF8570060B9FFE744F25041C5F602012E
:10521000086820F04050189A526F1043086004E06C
:105220009DF857008DF85600FFE7FFE71898C07803
:10523000C007002837D0FFE71898406C0B90032870
:1052400017D80B99DFE801F014020B1344F22C413C
:10525000C5F60201086840F4003008600DE01898B7
:105260000430022103F09CFB8DF8570005E004E0B8
:1052700003E001208DF85700FFE79DF8570060B963
:10528000FFE744F24C41C5F60201086820F0030034
:10529000189A526C1043086004E09DF857008DF88E
:1052A0005600FFE7FFE7189880784006002840F195
:1052B000B480FFE744F60001C5F60201086840F437
:1052C00080700860FEF734FB1690FFE744F600009C
:1052D000C5F602000068C00500280CD4FFE7FEF701
:1052E00027FB1699401A652804D3FFE703208DF8A1
:1052F000570000E0EAE79DF85700002840F087805B
:10530000FFE744F27040C5F60200006800F4407008
:105310001899D1F8B01001F44071884213D0FFE71A
:1053200044F27041C5F60201086820F440701790FD
:10533000086840F480300860086820F48030086015
:1053400017980860FFE71898D0F8B000B0F5807F94
:105350001FD1FFE7FEF7ECFA1690FFE744F270402A
:10536000C5F60200006800F002010020B0EB510F0A
:105370000ED1FFE7FEF7DCFA1699401A41F28931A7
:10538000884204D3FFE703208DF8570000E0E5E7EB
:10539000FFE79DF85700A0BBFFE7FFE71898D0F89C
:1053A000B00000F44070B0F5407F13D1FFE744F245
:1053B0001041C5F60201086820F47C50189AD2F812
:1053C000B0204FF6F043C0F6FF731A4040EA1210C7
:1053D000086008E044F21041C5F60201086820F4B4
:1053E0007C500860FFE71898D0F8B0206FF31F32A8
:1053F00044F27041C5F60201086810430860FFE7F7
:1054000004E09DF857008DF85600FFE704E09DF892
:1054100057008DF85600FFE7FFE718980078C0079F
:10542000002800F04E80FFE71898D0F880000A901E
:1054300028282BD80A99DFE801F0152929292929DC
:10544000292916292929292929291E2929292929EA
:1054500029292629292929292929272929292929C1
:105460002929280016E018980430012103F098FA41
:105470008DF857000EE018982430012103F078FBD6
:105480008DF8570006E005E004E003E001208DF808
:105490005700FFE79DF8570068B9FFE744F2544111
:1054A000C5F60201086820F03800189AD2F880206A
:1054B0001043086004E09DF857008DF85600FFE7A0
:1054C000FFE7189800788007002839D5FFE718987B
:1054D000C06F0990052819D80999DFE801F0030485
:1054E0000C14151616E018980430012103F058FA30
:1054F0008DF857000EE018982430012103F038FB96
:105500008DF8570006E005E004E003E001208DF887
:105510005700FFE79DF8570060B9FFE744F2544198
:10552000C5F60201086820F00700189AD26F1043F0
:10553000086004E09DF857008DF85600FFE7FFE78C
:1055400018980078400700283BD5FFE71898D0F856
:1055500098000890052819D80899DFE801F003049D
:105560000C14151616E018980430012103F018FAEF
:105570008DF857000EE018982430012103F0F8FA56
:105580008DF8570006E005E004E003E001208DF807
:105590005700FFE79DF8570068B9FFE744F258410C
:1055A000C5F60201086820F00700189AD2F8982082
:1055B0001043086004E09DF857008DF85600FFE79F
:1055C000FFE718980078800600284ED5FFE7189866
:1055D000D0F894000790C8B1FFE70798B0F1805F5A
:1055E00015D0FFE70798B0F1005F18D0FFE70798E4
:1055F000B0F1405F1BD0FFE70798B0F1804F17D0A4
:10560000FFE70798B0F1A04F13D013E016E0189809
:105610000430002103F0C4F98DF857000EE018980B
:105620002430022103F0A4FA8DF8570006E005E0CB
:1056300004E003E001208DF85700FFE79DF85700D4
:1056400068B9FFE744F25441C5F60201086820F04A
:10565000E040189AD2F894201043086004E09DF8C6
:1056600057008DF85600FFE7FFE7189800784006CE
:1056700000284ED5FFE71898D0F8A0000690C8B1D2
:10568000FFE70698B0F5806F15D0FFE70698B0F5F4
:10569000006F18D0FFE70698B0F5406F1BD0FFE70A
:1056A0000698B0F5805F17D0FFE70698B0F5A05FC9
:1056B00013D013E016E018980430002103F070F9BD
:1056C0008DF857000EE018982430022103F050FAAC
:1056D0008DF8570006E005E004E003E001208DF8B6
:1056E0005700FFE79DF8570068B9FFE744F25841BB
:1056F000C5F60201086820F4E050189AD2F8A020FC
:105700001043086004E09DF857008DF85600FFE74D
:10571000FFE718980078000600284ED5FFE7189894
:10572000D0F8A4000590C8B1FFE70598B0F5005F78
:1057300015D0FFE70598B0F5804F18D0FFE7059822
:10574000B0F5C04F1BD0FFE70598B0F5004F17D05C
:10575000FFE70598B0F5204F13D013E016E0189836
:105760000430002103F01CF98DF857000EE0189862
:105770002430022103F0FCF98DF8570006E005E023
:1057800004E003E001208DF85700FFE79DF8570083
:1057900068B9FFE744F25841C5F60201086820F4F1
:1057A0006040189AD2F8A4201043086004E09DF8E5
:1057B00057008DF85600FFE7FFE7189800780007BC
:1057C000002820D5FFE71898D0F88800B0F5805F52
:1057D0000CD1FFE718982430022103F0C9F920B159
:1057E000FFE701208DF85600FFE7FFE744F2544140
:1057F000C5F60201086820F44050189AD2F88820B3
:1058000010430860FFE718980078C006002820D5EC
:10581000FFE71898D0F89C00B0F5807F0CD1FFE727
:1058200018982430022103F0A3F920B1FFE70120EA
:105830008DF85600FFE7FFE744F25841C5F6020134
:10584000086820F44070189AD2F89C201043086031
:10585000FFE718988078000700283CD5FFE71898E4
:10586000D0F8A800049050B1FFE70498B0F5803F4D
:105870000DD0FFE70498B0F5003F10D010E0189865
:105880000430002103F08CF88DF857000CE01898D4
:105890002430022103F06CF98DF8570004E003E096
:1058A00001208DF85700FFE79DF8570068B9FFE722
:1058B00044F25841C5F60201086820F44030189AB5
:1058C000D2F8A8201043086004E09DF857008DF836
:1058D0005600FFE7FFE718988078400700283FD57B
:1058E000FFE71898D0F88C000390B0F5801F0AD01D
:1058F000FFE70398B0F5001F0ED0FFE70398B0F55F
:10590000401F11D011E044F22C41C5F60201086895
:1059100040F4003008600CE018982430012103F0B6
:1059200027F98DF8570004E003E001208DF85700B7
:10593000FFE79DF8570068B9FFE744F25441C5F608
:105940000201086820F44010189AD2F88C20104305
:10595000086004E09DF857008DF85600FFE7FFE768
:1059600018988078C007A8B3FFE71898C06C029019
:1059700028B1FFE70298B0F5803F09D010E044F26B
:105980002C41C5F60201086840F4003008600BE0C5
:1059900018980430022103F003F88DF8570003E053
:1059A00001208DF85700FFE79DF8570060B9FFE729
:1059B00044F24C41C5F60201086820F48030189A80
:1059C000D26C1043086004E09DF857008DF8560033
:1059D000FFE7FFE71898C078800600280CD5FFE79E
:1059E00018982430022103F0C3F820B1FFE701200A
:1059F0008DF85600FFE7FFE71898807880070028A9
:105A00003CD5FFE71898D0F884000190D0B1FFE7AB
:105A10000198B0F5807F0AD0FFE70198B0F5007FCC
:105A20000ED0FFE70198B0F5407F0AD00BE044F2BA
:105A30002C41C5F60201086840F40030086006E019
:105A400005E004E003E001208DF85700FFE79DF832
:105A5000570068B9FFE744F25441C5F602010868EF
:105A600020F44070189AD2F884201043086004E0B3
:105A70009DF857008DF85600FFE7FFE718988078EB
:105A8000C00600280CD5FFE744F25041C5F60201DC
:105A9000086820F00040189A926F10430860FFE7F2
:105AA00018988078800600280CD5FFE744F2504112
:105AB000C5F60201086820F08070189AD26E104373
:105AC0000860FFE718984078000700280CD5FFE72A
:105AD00044F25841C5F60201086820F00060189AA7
